:100000000C942A000C943F000C943F000C943F0089
:100010000C943F000C943F000C943F000C943F0064
:100020000C943F000C943F000C943F000C943F0054
:100030000C943F000C943F000C943F000C943F0044
:100040000C943F000C943F000C943F000C943F0034
:100050000C943F0011241FBECFE5D4E0DEBFCDBF1E
:1000600010E0A0E6B0E0E8ECF3E002C005900D92ED
:10007000AE38B107D9F70E9492010C94E2010C94BA
:1000800000000895979896989598949887FD979A68
:1000900086FD969A85FD959A84FD949A0895939A83
:1000A0000E94420082E08A95F1F700C0939882E0B6
:1000B0008A95F1F700C00895CF93DF93EC01939AEE
:1000C0000E94420082E08A95F1F700C0939882E096
:1000D0008A95F1F700C0939ACE0124E0880F991F0A
:1000E0002A95E1F70E94420082E08A95F1F700C06C
:1000F000939882E08A95F1F700C0DF91CF9108953F
:10010000939892989198909883FD939A82FD929AF1
:1001100081FD919A80FD909A0895CF93DF93EC0131
:10012000939A0E944200CE010E94800082E08A954C
:10013000F1F700C0939882E08A95F1F700C0DF9153
:10014000CF910895939A82E08A95F1F700C0939831
:1001500082E08A95F1F700C00895949A959A969A4C
:10016000979A08958C988D988E988F9808958C9A68
:100170008D9A8E9A8F9A08950E94B2000E94AD00C7
:100180009198929A939A82E08A95F1F700C080B391
:10019000939892E09A95F1F700C0939A92E09A951D
:1001A000F1F700C090B3939892E09A95F1F700C0F0
:1001B00087FDE8CF92980C94B70091980E945C005C
:1001C0000C94BC0081E090E00C94DD008EE090E0A7
:1001D0000C94DD008CE090E00C94DD000C94EA00BF
:1001E0008FE090E00C94DD0081319CF463308CF45E
:1001F000611104C0082E000C990B07C0613059F43E
:10020000082E000C990B805C9F4F80680E94DD00D7
:1002100002C081E0089580E00895CF93C82FC77F82
:1002200021F4643021F0662351F0C1E012C0811145
:1002300003C084E190E007C08CE190E004C081112C
:1002400005C080E190E00E94DD0003C088E190E0FD
:10025000FACF8C2FCF910895919A0E945C000E9452
:10026000BC0091980895082E000C990B0C942C0159
:100270000F931F93CF938C01C0E0F801EC0FF11D99
:100280008081882339F0CF5F082E000C990B0E94E3
:100290002C01F3CFCF911F910F9108958B9A899ADA
:1002A0008A9A0E94B7009198929893988FEF99EF4D
:1002B0000197F1F700C0000080E390E00E94DD00AC
:1002C0008FE19EE40197F1F700C000000E94A200B8
:1002D00087EB91E00197F1F700C000000E94A200B7
:1002E00087EC90E00197F1F700C0000080E290E019
:1002F0000E944F000E94A20087EC90E00197F1F766
:1003000000C0000088E290E00E94DD0088E090E0FC
:100310000E94DD0081E090E00E94DD0086E090E038
:100320000C94DD000E944E010E94E20060E080E03B
:100330000E94F40080E690E00E9438010E94EE00E6
:100340002FEF87EA91E6215080409040E1F700C00E
:1003500000000E94E20060E080E00E94F4008BE672
:1003600090E00E9438010E94E6002FEF87EA91E6B4
:10037000215080409040E1F700C000000E94E20060
:1003800060E080E00E94F40085E790E00E94380180
:100390000E94F0002FEF87EA91E6215080409040C4
:1003A000E1F700C000000E94E20060E080E00E94EF
:1003B000F40082E890E00E9438010E94EA0080E0A8
:0803C00090E00895F894FFCFCE
:1003C800444953504C4159204F4E00435552534FC6
:1003D80052204F4E00435552534F5220424C494EE3
:0E03E8004B00435552534F52204F46460000E3
:00000001FF
